:1000000037110020130101803715024013058501C7
:100010008325050093035003B3E575002320B50045
:10002000371502401305C50183250500B7032000DD
:10003000B3E575002320B500371501408325050081
:10004000B7F3FFFF9383F300B3F57500B713000018
:10005000938303DDB3E575002320B5003715014018
:100060001305054083250500B71300F09383F3FFC4
:10007000B3F57500B7838808B3E575002320B50094
:10008000371501401305C5408325050093038007FC
:10009000B3E575002320B500371501401305054071
:1000A00083250500B71300F09383F3FFB3F57500C4
:1000B000B7838808B3E575002320B50037150140E4
:1000C0001305C5408325050093038007B3E575003C
:1000D0002320B500371502401305050183250500CF
:1000E000B7032000B3E575002320B50093C3F3FFE9
:1000F000B3F575002320B500375500401305454082
:1001000083150500930300FCB3F57500930380008D
:10011000B3E575002310B500375500401305C54100
:1001200083150500B7F3FFFFB3F575009303800255
:10013000B3E575002310B5003755004013050540A1
:100140008315050093031000B3E575002310B50077
:100150003755004013050540831505009303004003
:10016000B3E575002310B500EF00000EEF0040115D
:1001700093078007EF00002793070000EF00C017E8
:10018000971200009382C2011303F00083C10200A2
:100190009382120003C2020093821200938701002F
:1001A000EF0080151303F3FF630A030093070200B7
:1001B000EF0080141303F3FFE31A03FCEF00801B2E
:1001C000EF00C01EEF008057EF00406717160000D9
:1001D00013060662EF00102AEF000051EF00C05036
:1001E000EF00C065371701401307874083260700DB
:1001F00093F6060163940600EF00102BEF00400811
:100200009307000DEF00001E93070000EF00C00EE3
:10021000EF00807CEF005004EF00101BEF00005D4A
:10022000B704002093844400938474001302800078
:10023000EF0000661302F2FF9384F4FFE31A02FE5C
:10024000EF00804A6FF01FFA130141FF23201100D5
:100250002322A1002324B100375500401305854116
:100260008315050093F52500E39805FE832581009D
:1002700003254100832001001301C10067800000B5
:100280001301C1FE232011002322C1002324B10049
:100290002326A1002328710037550040130505408F
:1002A0008315050093E505502310B5003755004030
:1002B0001305454183150500375500401305854159
:1002C0000316050013160601B3E5C500B7030300C6
:1002D00093831300B3F57500E39A75FC8323010142
:1002E0000325C100832581000326410083200100EE
:1002F0001301410167800000130141FF2320110019
:100300002322A1002324B1003755004013054541A5
:100310008315050093F50508E38805FE3755004071
:10032000130505412300F5008325810003254100C5
:10033000832001001301C10067800000130141FF09
:10034000232011002322A1002324B10037550040AF
:10035000130505408315050093F5F5BF2310B5007F
:100360008325810003254100832001001301C10082
:1003700067800000130141FF232011002322A10008
:100380002324B1003755004013054541831505006E
:1003900093F50508E38805FE8325810003254100C8
:1003A000832001001301C10067800000130141FF99
:1003B000232011002322A1002324B100375500403F
:1003C000130505408315050093E505202310B500AE
:1003D0008325810003254100832001001301C10012
:1003E000678000001301C1FE232011002322A10019
:1003F0002324B1002326C100232871003755004073
:10040000130505412300F50037550040130545410C
:100410008315050037550040130585410316050077
:1004200013160601B3E5C500B7030700938323083D
:10043000B3F57500E39A75FC832301010326C1001F
:100440008325810003254100832001001301410120
:1004500067800000130101FF232011002322A10067
:100460002324B1002326C100375500401305454120
:100470008315050037550040130585410316050017
:1004800013160601B3E5C500370500201305450026
:100490002320B5000326C1008325810003254100E8
:1004A000832001001301010167800000130141FF57
:1004B000232011002322A1002324B100375500403E
:1004C000130545418325050093F54500E38805FEA6
:1004D0008325810003254100832001001301C10011
:1004E000678000001301C1FE232011002322A10018
:1004F0002324B100232661002328C10037030020F4
:10050000130343003755004013054541831505008B
:1005100037550040130585410316050013160601E3
:10052000B3E5C500B703030093832300B3F575005B
:10053000E39A75FC375500401305454183150500C6
:10054000375500401305854183150500EFF01FDF87
:10055000EFF0DFE5375500401305454183250500E1
:1005600093F50504E38805FE375500401305054162
:10057000830705002300F300032601010323C100C4
:1005800083258100032541008320010013014101DF
:1005900067800000130141FE232011002322A100E7
:1005A0002324B1002326610023287100232A51004F
:1005B000232CC10037550040130505412300F500E9
:1005C0003755004013054541831505003755004058
:1005D000130585410316050013160601B3E5C50092
:1005E000B703030093832300B3F57500E39A75FC0A
:1005F0003755004013054541831505003755004028
:1006000013058541831505009303200063FC530205
:1006100037550040130545418325050093F5050432
:10062000E38805FE375500401305054183070500A3
:100630002300F300130313009382F2FF63F45300CB
:100640006FF01FFD37550040130545418315050028
:1006500093F50504E38805FE375500401305054171
:10066000830705002300F30013031300EFF01FCDF1
:10067000EFF0DFD3375500401305454183150500E2
:1006800093F50504E38805FE375500401305054141
:10069000830705002300F300032681018322410123
:1006A000832301010323C100832581000325410029
:1006B000832001001301C10167800000130181FF45
:1006C000232011002322610037B33201130353406A
:1006D0001303F3FFE31E03FE032341008320010005
:1006E0001301810067800000130181FF23201100A6
:1006F0002322610037B31E001303A3B91303F3FFD2
:10070000E31E03FE03234100832001001301810047
:1007100067800000130181FF232011002322610064
:100720001303A07D1303F3FFE31E03FE0323410025
:10073000832001001301810067800000130181FF05
:10074000232011002322610037530000130343E8E4
:100750001303F3FFE31E03FE032341008320010084
:100760001301810067800000130181FF2320110025
:100770002322610037930100130343891303F3FF1E
:10078000E31E03FE032341008320010013018100C7
:10079000678000001301C1FF23201100EFF0DFAAE2
:1007A000EFF01FAE93078007EFF0DFC39307000061
:1007B000EFF09FB483200100130141006780000027
:1007C0001301C1FF23201100EFF01FA8EFF05FAB72
:1007D00093078007EFF01FC193070004EFF0DFB12C
:1007E0008320010013014100678000001301C1FF55
:1007F00023201100EFF01FFA93072002EFF0DFAF84
:1008000093070000EFF05FAF93073000EFF0DFAE2B
:1008100093071002EFF05FAE93070000EFF0DFAD3B
:100820009307F007EFF05FADEFF0DFB4EFF01FB824
:100830008320010013014100678000001301C1FF04
:100840002320110093034000EFF01FA0EFF05FA3FF
:1008500093078007EFF01FB993070004EFF0DFA9BB
:100860009301000893F70700EFF01FA99381F1FFB0
:10087000E39A01FE9383F3FFE39403FEEFF09FAF4F
:10088000EFF0DFB283200100130141006780000018
:10089000130101FF232011002322C1002324D100D2
:1008A00023266100171600001306C69083C60400B5
:1008B0001303000263886600130606011303130086
:1008C000E39C66FEEFF05F98EFF09F9B9307800735
:1008D000EFF05FB193070004EFF01FA29301000156
:1008E000EF004002EFF01FA9EFF05FAC0323C1005F
:1008F00083268100032641008320010013010101AA
:10090000678000001301C1FF23201100834306000C
:1009100013061600EF0000039387030093F7F70F09
:10092000EFF09F9D9387030093D78700EFF0DF9C44
:100930009381F1FFE39C01FC83200100130141003E
:10094000678000001301C1FE2328310023264100E7
:10095000232461002322510023201100137202007E
:10096000930180003383030093720308639A0202A9
:1009700013122200131313009381F1FFE39601FE7B
:10098000930302008320010083224100032381009E
:100990000322C1008321010113014101678000008E
:1009A000131222009302300033625200131313001B
:1009B0009381F1FFE39A01FA93030200832001007F
:1009C00083224100032381000322C100832101010E
:1009D00013014101678000001301C1FF23201100B2
:1009E0003703002013034300EFF09F899307100D96
:1009F00093027000EFF01FBA832001001301410041
:100A0000678000001301C1FF23201100EFF0DF8396
:100A1000EFF01F879307000DEFF0DF9C9387050031
:100A2000EFF09F8D370600201306460013061600D0
:100A300083470600EFF05F8C1306F6FF834706003E
:100A4000EFF09F8BEFF01F93EFF05F968320010094
:100A50001301410067800000130101FF23201100F2
:100A60002322C100232431002326D1003706002091
:100A7000130646008301060093F1F10093E10103A0
:100A8000B7060020938646012380360083010600C6
:100A900093F1010F93D1410093E101039386160076
:100AA0002380360093861600130616008301060085
:100AB00093F1F10093E101032380360083010600E6
:100AC00093F1010F93D1410093E101039386160046
:100AD0002380360093861600130616008301060055
:100AE00093F1F10093E101032380360083010600B6
:100AF00093F1010393D1410093E101039386160022
:100B00002380360093861600130616008301060024
:100B100093F1710093E10103238036009386160060
:100B2000130616008301060093F1F10093E101031F
:100B3000238036008301060093F1010393D1410025
:100B400093E10103938616002380360093861600F6
:100B5000130616008301060093F1F10093E10103EF
:100B6000238036008301060093F1010193D14100F7
:100B700093E10103938616002380360093861600C6
:100B8000130616008301060093F1F10093E10103BF
:100B9000238036008301060093F1010F93D14100B9
:100BA00093E1010393861600238036009386160096
:100BB0008326C10083218100032641008320010098
:100BC0001301010167800000130101FF23201100C0
:100BD000232241002324C1002326D1003706002010
:100BE00013064601B706002093864600030206005E
:100BF00023804600130616009386160003020600A3
:100C000023804600938616001302A003238046002B
:100C10001306160093861600030206002380460082
:100C20001306160093861600030206002380460072
:100C3000938616001302A0032380460013061600B5
:100C40009386160003020600238046001306160052
:100C50009386160003020600238046008326C10007
:100C600003268100032241008320010013010101BA
:100C7000678000001301C1FF2320110083010600DB
:100C8000638E0100B7040020938444002380340065
:100C9000EFF01FC0130616006FF05FFE8320010007
:100CA00013014100678000001301C1FF23201100E0
:100CB00093010000B7040020938444012380340092
:100CC000EFF0DFB7EFF09FB2171600001306C6B3C0
:100CD000EFF05FFAEFF05FA1EFF01FA1EFF01FB6AA
:100CE000EFF0DFB01302B00317160000130686AC56
:100CF000B704002093844400EFF05FAF8301060047
:100D000093F1010F93D1410093E10103238034005B
:100D1000EFF01FB88301060093F1F10093E10103A6
:100D200023803400EFF0DFB6EFF01F9C13061600AF
:100D30001302F2FF3717014013078740832607008D
:100D400093F6860063820602371701401307874037
:100D50008326070093F60604638406006FF09FFD68
:100D6000E30202F86FF05FF91306F6FF8301060055
:100D7000B70400209384440193841400238034003A
:100D8000EFF0DFABEFF09FA617160000130626A7C3
:100D9000EFF05FEEEFF05F95EFF01F95EFF01FAA19
:100DA000EFF0DFA41302800117160000130686A0DF
:100DB000B704002093844400EFF05FA38301060092
:100DC00093F1010F93D1410093E10103238034009B
:100DD000EFF01FAC8301060093F1F10093E10103F2
:100DE00023803400EFF0DFAAEFF01F901306160007
:100DF0001302F2FF371701401307874083260700CD
:100E000093F6860063820602371701401307874076
:100E10008326070093F60604638406006FF09FFDA7
:100E2000E30202F86FF05FF91306F6FF8301060094
:100E3000B704002093844401938424002380340069
:100E4000EFF0DF9FEFF09F9A171600001306569CF5
:100E5000EFF05FE2EFF05F89EFF01F89EFF01F9E88
:100E6000EFF0DF9813027000171600001306869447
:100E7000B704002093844400EFF05F9783010600DD
:100E800093F1010F93D1410093E1010323803400DA
:100E9000EFF01FA08301060093F1F10093E101033D
:100EA00023803400EFF0DF9EEFF01F84130616005E
:100EB0001302F2FF3717014013078740832607000C
:100EC00093F68600638206023717014013078740B6
:100ED0008326070093F60604638406006FF09FFDE7
:100EE000E30202F86FF05FF91306F6FF83010600D4
:100EF000B704002093844401938434002380340099
:100F0000EFF0DF93EFF09F8E171600001306369276
:100F1000EFF05FD6EFF04FFDEFF00FFDEFF01F9217
:100F2000EFF0DF8C1302F00117160000130686881D
:100F3000B704002093844400EFF05F8B8301060028
:100F400093F1010F93D1410093E101032380340019
:100F5000EFF01F948301060093F1F10093E1010388
:100F600023803400EFF0DF92EFF00FF81306160045
:100F70001302F2FF3717014013078740832607004B
:100F800093F68600638206023717014013078740F5
:100F90008326070093F60604638406006FF09FFD26
:100FA000E30202F86FF05FF91306F6FF8301060013
:100FB000B7040020938444019384440023803400C8
:100FC000EFF0DF87EFF09F82171600001306E6842C
:100FD000EFF05FCAEFF04FF1EFF00FF1EFF01F8687
:100FE000EFF0DF801302C000170600001306867CB6
:100FF000B704002093844400EFF04FFF8301060004
:1010000093F1010F93D1410093E101032380340058
:10101000EFF01F888301060093F1F10093E10103D3
:1010200023803400EFF0DF86EFF00FEC130616009C
:101030001302F2FF3717014013078740832607008A
:1010400093F6860063820602371701401307874034
:101050008326070093F60604638406006FF09FFD65
:10106000E30202F86FF05FF91306F6FF8301060052
:10107000B7040020938444019384540023803400F7
:10108000EFF0CFFBEFF08FF617060000130696790E
:10109000EFF05FBEEFF04FE5EFF00FE5EFF00FFA86
:1010A000EFF0CFF413023006170600001306867027
:1010B000B704002093844400EFF04FF3830106004F
:1010C00093F1010F93D1410093E101032380340098
:1010D000EFF00FFC8301060093F1F10093E10103AF
:1010E00023803400EFF0CFFAEFF00FE01306160084
:1010F0001302F2FF371701401307874083260700CA
:1011000093F6860063820602371701401307874073
:101110008326070093F60604638406006FF09FFDA4
:10112000E30202F86FF05FF91306F6FF8301060091
:10113000B704002093844401938464002380340026
:10114000EFF08F90EFF0CF939307000DEFF08FA9A2
:1011500093070000EFF04F9A370600201306460170
:101160009301700083070600EFF00F991306160035
:101170009381F1FFE39801FEEFF0CF9FEFF00FA313
:0C11800083200100130141006780000083
:10119000C10300000A00880F00004202A81F2001BE
:1011A00021007F220003DA028D14AF00000000004E
:1011B000000000000000000000000000000000002F
:1011C000000000330000000000000000F8003000C4
:1011D00000100000100C00000C06000006000000CB
:1011E00040C00004C07804047840043F40003F043D
:1011F000000800FF7030002088001E18FC0021004D
:10120000F0E0000308181E1CF000212100001E0061
:1012100000701024F0002123080027218800191EE7
:10122000100016000E00000000000000000000008A
:10123000000000000000E007181804200240000031
:101240000000024004201818E00700000000000021
:10125000400240028001F00F800140024002000085
:10126000000100010001F01F000100010001000069
:10127000008000B0007000000000000000000000CE
:101280000000000100010001000100010001000157
:1012900000000030003000000000000000000000EE
:1012A00000000060001800068001600018000400C3
:1012B0000000E00F1010082008201010E00F0000C0
:1012C000000010201020F83F002000200000000047
:1012D000000070300828082408228821703000009F
:1012E000000030180820882088204811300E0000A7
:1012F00000000007C00420241024F83F0024000050
:101300000000F8190821882088200811080E000024
:101310000000E00F1011882088201811000E000036
:10132000000038000800083FC8003800080000002E
:101330000000701C8822082108218822701C0000EF
:101340000000E0001031082208221011E00F000018
:10135000000000000000C030C030000000000000AD
:10136000000000000080806000000000000000001D
:101370000000000180024004200810100820000036
:101380004004400440044004400440044004000081
:101390000000082010102008400480020001000016
:1013A000000070004800083008360801F000000016
:1013B000C0073018C8272824E8231014E00B0000C9
:1013C0000020003CC0233802E00200270038002043
:1013D0000820F83F8820882088207011000E000027
:1013E000C00730180820082008200810380800001E
:1013F0000820F83F0820082008201010E00F000007
:101400000820F83F88208820E823082010180000D2
:101410000820F83F88208800E8030800100000003A
:10142000C0073018082008200822381E00020000DB
:101430000820F83F0821000100010821F83F08209A
:10144000000008200820F83F0820082000000000C5
:1014500000C0008008800880F87F080008000000B5
:101460000820F83F8820C0012826183808200000EE
:101470000820F83F08200020002000200030000055
:101480000820F83FF800003FF800F83F082000006F
:101490000820F83F3020C00000070818F83F080077
:1014A000E00F10100820082008201010E00F0000A6
:1014B0000820F83F0821080108010801F000000099
:1014C000E00F10180824082408381050E04F0000DE
:1014D0000820F83F882088008803880C703000209E
:1014E000000070388820082108210822381C0000DC
:1014F000180008000820F83F082008001800000025
:101500000800F81F0820002000200820F81F08000D
:101510000800780088070038000EC801380008006D
:10152000F803083C0007F8000007083CF803000037
:1015300008201830682C80038003682C183008209D
:1015400008003800C820003FC8203800080000000C
:101550001020083808260821C82038200818000064
:10156000000000000000FE7F024002400240000038
:1015700000000C003000C0010006003800C0000070
:101580000000024002400240FE7F00000000000018
:10159000000000000400020002000200040000003D
:1015A000008000800080008000800080008000803B
:1015B0000000020002000400000000000000000023
:1015C000000000198024802280228022003F002019
:1015D0000800F83F0011802080200011000E00005C
:1015E0000000000E001180208020802000110000EB
:1015F0000000000E0011802080208810F83F00209D
:101600000000001F80228022802280220013000020
:10161000000080208020F03F88208820880018006B
:101620000000006B80948094809480938060000020
:101630000820F83F0021800080008020003F00202B
:10164000000080209820983F00200020000000002B
:10165000000000C0008080809880987F000000001B
:101660000820F83F00240002802D803080200000F8
:10167000000008200820F83F0020002000000000A3
:101680008020803F80208000803F80208000003FBD
:101690008020803F0021800080008020003F0020CB
:1016A0000000001F8020802080208020001F00007C
:1016B000808080FF00A1802080200011000E0000AB
:1016C0000000000E00118020802080A080FF00809C
:1016D00080208020803F0021802080008001000049
:1016E000000000338024802480248024801900009E
:1016F000000080008000E01F8020802000000000AB
:101700008000801F0020002000208010803F0020EB
:1017100080008001800E003000088006800180007B
:10172000800F8030000C8003000C8030800F800020
:10173000000080208031002E800E8031802000004B
:1017400080808081808E007000188006800180007B
:10175000000080218030802C802280218030000099
:10176000000000000000000080007C3F02400240BA
:101770000000000000000000FFFF0000000000006B
:101780000000024002407C3F80000000000000009A
:101790000000060001000100020002000400040035
:1017A00000004D4F545557455448465253415355E8
:1017B000000102030405060708091011121314158D
:1017C00016171819202122232425262728293031ED
:1017D0003233343536373839404142434445464741
:1017E00048495051525354555657585948656C6C96
:1017F0006F2C20576F726C64210061646A20686FDF
:101800007572200061646A206D696E200061646AEF
:1018100020646179200061646A206D6F6E746820B5
:101820000061646A2079656172200061646A2064E5
:05183000617465200059
:00000001FF
